:1000000014C026C025C024C023C022C021C020C0E7
:100010001FC01EC01DC01CC01BC01AC019C018C004
:1000200017C016C015C014C013C011241FBECFE5E1
:10003000D1E0DEBFCDBF10E0A0E6B0E0E6EEF0E03C
:1000400002C005900D92A238B107D9F702D049C07D
:10005000D7CF1BBA18BA12BA83E08ABB8FEF87BB1F
:100060008FE781BB40E021E030E01BBA18BA12BA3A
:10007000842F90E0FC01E05AFF4F50815130D9F0BD
:1000800070F0523019F5FC01EF58FF4FC9010080A4
:1000900002C0880F991F0A94E2F782BB17C0FC01C7
:1000A000EF58FF4FC901008002C0880F991F0A94C2
:1000B000E2F78BBB0BC0FC01EF58FF4FC90100807A
:1000C00002C0880F991F0A94E2F788BB8FE39CE96E
:1000D0000197F1F700C000004F5F413130F240E07E
:0600E000C4CFF894FFCF2D
:1000E60002020000020202020201010101010101F5
:1000F60001000101000203040506000102030405D4
:020106000607EA
:00000001FF
